{
  "_format": "hh-sol-artifact-1",
  "contractName": "GoFundme",
  "sourceName": "contracts/Crowdfund.sol",
  "abi": [
    {
      "inputs": [],
      "stateMutability": "payable",
      "type": "constructor"
    },
    {
      "anonymous": false,
      "inputs": [
        {
          "indexed": false,
          "internalType": "uint256",
          "name": "campaignId",
          "type": "uint256"
        },
        {
          "indexed": false,
          "internalType": "address",
          "name": "creator",
          "type": "address"
        },
        {
          "indexed": false,
          "internalType": "uint256",
          "name": "targetAmount",
          "type": "uint256"
        },
        {
          "indexed": false,
          "internalType": "uint256",
          "name": "deadline",
          "type": "uint256"
        },
        {
          "indexed": false,
          "internalType": "string",
          "name": "title",
          "type": "string"
        },
        {
          "indexed": false,
          "internalType": "string",
          "name": "description",
          "type": "string"
        }
      ],
      "name": "CampaignCreated",
      "type": "event"
    },
    {
      "anonymous": false,
      "inputs": [
        {
          "indexed": false,
          "internalType": "uint256",
          "name": "campaignId",
          "type": "uint256"
        },
        {
          "indexed": false,
          "internalType": "address",
          "name": "donor",
          "type": "address"
        },
        {
          "indexed": false,
          "internalType": "uint256",
          "name": "amount",
          "type": "uint256"
        }
      ],
      "name": "DonationMade",
      "type": "event"
    },
    {
      "anonymous": false,
      "inputs": [
        {
          "indexed": false,
          "internalType": "uint256",
          "name": "campaignId",
          "type": "uint256"
        },
        {
          "indexed": false,
          "internalType": "address",
          "name": "creator",
          "type": "address"
        },
        {
          "indexed": false,
          "internalType": "uint256",
          "name": "amount",
          "type": "uint256"
        }
      ],
      "name": "FundsWithdrawn",
      "type": "event"
    },
    {
      "inputs": [],
      "name": "campaignCount",
      "outputs": [
        {
          "internalType": "uint256",
          "name": "",
          "type": "uint256"
        }
      ],
      "stateMutability": "view",
      "type": "function"
    },
    {
      "inputs": [
        {
          "internalType": "uint256",
          "name": "",
          "type": "uint256"
        }
      ],
      "name": "campaigns",
      "outputs": [
        {
          "internalType": "address payable",
          "name": "creator",
          "type": "address"
        },
        {
          "internalType": "string",
          "name": "title",
          "type": "string"
        },
        {
          "internalType": "string",
          "name": "description",
          "type": "string"
        },
        {
          "internalType": "uint256",
          "name": "targetAmount",
          "type": "uint256"
        },
        {
          "internalType": "uint256",
          "name": "deadline",
          "type": "uint256"
        },
        {
          "internalType": "uint256",
          "name": "totalDonated",
          "type": "uint256"
        },
        {
          "internalType": "bool",
          "name": "withdrawn",
          "type": "bool"
        },
        {
          "internalType": "bool",
          "name": "reachedDeadline",
          "type": "bool"
        }
      ],
      "stateMutability": "view",
      "type": "function"
    },
    {
      "inputs": [
        {
          "internalType": "uint256",
          "name": "campaignId",
          "type": "uint256"
        }
      ],
      "name": "checkDeadline",
      "outputs": [
        {
          "internalType": "bool",
          "name": "",
          "type": "bool"
        }
      ],
      "stateMutability": "view",
      "type": "function"
    },
    {
      "inputs": [
        {
          "internalType": "uint256",
          "name": "campaignId",
          "type": "uint256"
        }
      ],
      "name": "checkTargetReached",
      "outputs": [
        {
          "internalType": "bool",
          "name": "",
          "type": "bool"
        }
      ],
      "stateMutability": "view",
      "type": "function"
    },
    {
      "inputs": [
        {
          "internalType": "uint256",
          "name": "targetAmount",
          "type": "uint256"
        },
        {
          "internalType": "uint256",
          "name": "deadline",
          "type": "uint256"
        },
        {
          "internalType": "string",
          "name": "title",
          "type": "string"
        },
        {
          "internalType": "string",
          "name": "description",
          "type": "string"
        }
      ],
      "name": "createCampaign",
      "outputs": [
        {
          "internalType": "uint256",
          "name": "",
          "type": "uint256"
        }
      ],
      "stateMutability": "payable",
      "type": "function"
    },
    {
      "inputs": [
        {
          "internalType": "uint256",
          "name": "campaignId",
          "type": "uint256"
        }
      ],
      "name": "donate",
      "outputs": [],
      "stateMutability": "payable",
      "type": "function"
    },
    {
      "inputs": [
        {
          "internalType": "uint256",
          "name": "campaignId",
          "type": "uint256"
        }
      ],
      "name": "getBalance",
      "outputs": [
        {
          "internalType": "uint256",
          "name": "",
          "type": "uint256"
        }
      ],
      "stateMutability": "view",
      "type": "function"
    },
    {
      "inputs": [
        {
          "internalType": "address",
          "name": "creator",
          "type": "address"
        }
      ],
      "name": "getCampaignsByCreator",
      "outputs": [
        {
          "internalType": "uint256[]",
          "name": "",
          "type": "uint256[]"
        }
      ],
      "stateMutability": "view",
      "type": "function"
    },
    {
      "inputs": [
        {
          "internalType": "uint256",
          "name": "campaignId",
          "type": "uint256"
        }
      ],
      "name": "getDonors",
      "outputs": [
        {
          "internalType": "address[]",
          "name": "",
          "type": "address[]"
        }
      ],
      "stateMutability": "view",
      "type": "function"
    },
    {
      "inputs": [
        {
          "internalType": "uint256",
          "name": "campaignId",
          "type": "uint256"
        }
      ],
      "name": "withdrawFunds",
      "outputs": [],
      "stateMutability": "nonpayable",
      "type": "function"
    }
  ],
  "bytecode": "0x60806040526110a0806100136000396000f3fe6080604052600436106100915760003560e01c80637274e30d116100595780637274e30d14610180578063a699094614610196578063b63e0eb0146101b6578063d5b8d84a146101c9578063f14faf6f146101f657600080fd5b8063141961bc14610096578063155dd5ee146100d35780631e010439146100f557806329516511146101235780636c7558b014610150575b600080fd5b3480156100a257600080fd5b506100b66100b1366004610c98565b610209565b6040516100ca989796959493929190610cfe565b60405180910390f35b3480156100df57600080fd5b506100f36100ee366004610c98565b61036b565b005b34801561010157600080fd5b50610115610110366004610c98565b61056e565b6040519081526020016100ca565b34801561012f57600080fd5b5061014361013e366004610c98565b6105f6565b6040516100ca9190610d67565b34801561015c57600080fd5b5061017061016b366004610c98565b61068c565b60405190151581526020016100ca565b34801561018c57600080fd5b5061011560015481565b3480156101a257600080fd5b506101706101b1366004610c98565b6106cf565b6101156101c4366004610e57565b61070d565b3480156101d557600080fd5b506101e96101e4366004610ece565b61089f565b6040516100ca9190610efe565b6100f3610204366004610c98565b6109fd565b600060208190529081526040902080546001820180546001600160a01b03909216929161023590610f36565b80601f016020809104026020016040519081016040528092919081815260200182805461026190610f36565b80156102ae5780601f10610283576101008083540402835291602001916102ae565b820191906000526020600020905b81548152906001019060200180831161029157829003601f168201915b5050505050908060020180546102c390610f36565b80601f01602080910402602001604051908101604052809291908181526020018280546102ef90610f36565b801561033c5780601f106103115761010080835404028352916020019161033c565b820191906000526020600020905b81548152906001019060200180831161031f57829003601f168201915b505050506003830154600484015460058501546008909501549394919390925060ff8082169161010090041688565b8060015481106103965760405162461bcd60e51b815260040161038d90610f6b565b60405180910390fd5b600082815260208190526040902080546001600160a01b031633146104095760405162461bcd60e51b8152602060048201526024808201527f4f6e6c79207468652063726561746f722063616e2077697468647261772066756044820152633732399760e11b606482015260840161038d565b600881015460ff1615156001146104625760405162461bcd60e51b815260206004820152601860248201527f46756e647320616c72656164792077697468647261776e2e0000000000000000604482015260640161038d565b61046b8361068c565b801561047d575061047b836106cf565b155b6104d85760405162461bcd60e51b815260206004820152602660248201527f546172676574206e6f742072656163686564206f7220646561646c696e65207060448201526530b9b9b2b21760d11b606482015260840161038d565b600581015481546040516001600160a01b039091169082156108fc029083906000818181858888f19350505050158015610516573d6000803e3d6000fd5b5060088201805461ffff1916610101179055604080518581523360208201529081018290527ff440aec6b52895984d061d622e6edeba6210f7c3e059be920663140c084560d79060600160405180910390a150505050565b60008160015481106105925760405162461bcd60e51b815260040161038d90610f6b565b60008381526020819052604090206001548411156105e95760405162461bcd60e51b815260206004820152601460248201527324b73b30b634b21031b0b6b830b4b3b71024a21760611b604482015260640161038d565b6005015491505b50919050565b606081600154811061061a5760405162461bcd60e51b815260040161038d90610f6b565b6000838152602081815260409182902060078101805484518185028101850190955280855291939290919083018282801561067e57602002820191906000526020600020905b81546001600160a01b03168152600190910190602001808311610660575b505050505092505050919050565b60008160015481106106b05760405162461bcd60e51b815260040161038d90610f6b565b5050600090815260208190526040902060038101546005909101541490565b60008160015481106106f35760405162461bcd60e51b815260040161038d90610f6b565b505060009081526020819052604090206004015442101590565b600080851161076f5760405162461bcd60e51b815260206004820152602860248201527f54617267657420616d6f756e74206d757374206265206772656174657220746860448201526730b7103d32b9379760c11b606482015260840161038d565b4284116107be5760405162461bcd60e51b815260206004820152601f60248201527f446561646c696e65206d75737420626520696e20746865206675747572652e00604482015260640161038d565b6001805460009081526020818152604090912080546001600160a01b0319163317815560038101889055855190926107fd929084019190870190610bff565b5082516108139060028301906020860190610bff565b50600481018590556000600582015560088101805461ffff191690556001546040517f98a0d441b7626ac9b31750373850d01cdb57ad3406ddc03bb1d40a12c18de8229161086a9133908a908a908a908a90610fa2565b60405180910390a1600180549060006108828361100a565b9190505550600180546108959190611025565b9695505050505050565b6060600060015467ffffffffffffffff8111156108be576108be610db4565b6040519080825280602002602001820160405280156108e7578160200160208202803683370190505b5090506000805b600154811015610958576000818152602081905260409020546001600160a01b0386811691161415610946578083838151811061092d5761092d61103c565b6020908102919091010152816109428161100a565b9250505b806109508161100a565b9150506108ee565b5060008167ffffffffffffffff81111561097457610974610db4565b60405190808252806020026020018201604052801561099d578160200160208202803683370190505b50905060005b828110156109f4578381815181106109bd576109bd61103c565b60200260200101518282815181106109d7576109d761103c565b6020908102919091010152806109ec8161100a565b9150506109a3565b50949350505050565b806001548110610a1f5760405162461bcd60e51b815260040161038d90610f6b565b6000828152602081905260409020600881015460ff1615610a8c5760405162461bcd60e51b815260206004820152602160248201527f43616d706169676e2066756e647320616c72656164792077697468647261776e6044820152601760f91b606482015260840161038d565b8060040154421115610ad75760405162461bcd60e51b815260206004820152601460248201527310d85b5c185a59db881a185cc8195e1c1a5c995960621b604482015260640161038d565b6008810154610100900460ff1615610b315760405162461bcd60e51b815260206004820152601d60248201527f43616d706169676e20646561646c696e6520686173207061737365642e000000604482015260640161038d565b336000908152600682016020526040902054610b6f57600781018054600181018255600091825260209091200180546001600160a01b031916331790555b34816005016000828254610b839190611052565b9091555050336000908152600682016020526040902054610ba5903490611052565b336000818152600684016020908152604091829020939093558051868152928301919091523482820152517fe555da28bdb778f65d22794d88927ebaeca03f7de9d1b7d39245bc8fb5ca078a9181900360600190a1505050565b828054610c0b90610f36565b90600052602060002090601f016020900481019282610c2d5760008555610c73565b82601f10610c4657805160ff1916838001178555610c73565b82800160010185558215610c73579182015b82811115610c73578251825591602001919060010190610c58565b50610c7f929150610c83565b5090565b5b80821115610c7f5760008155600101610c84565b600060208284031215610caa57600080fd5b5035919050565b6000815180845260005b81811015610cd757602081850181015186830182015201610cbb565b81811115610ce9576000602083870101525b50601f01601f19169290920160200192915050565b6001600160a01b038916815261010060208201819052600090610d238382018b610cb1565b90508281036040840152610d37818a610cb1565b60608401989098525050608081019490945260a0840192909252151560c0830152151560e0909101529392505050565b6020808252825182820181905260009190848201906040850190845b81811015610da85783516001600160a01b031683529284019291840191600101610d83565b50909695505050505050565b634e487b7160e01b600052604160045260246000fd5b600082601f830112610ddb57600080fd5b813567ffffffffffffffff80821115610df657610df6610db4565b604051601f8301601f19908116603f01168101908282118183101715610e1e57610e1e610db4565b81604052838152866020858801011115610e3757600080fd5b836020870160208301376000602085830101528094505050505092915050565b60008060008060808587031215610e6d57600080fd5b8435935060208501359250604085013567ffffffffffffffff80821115610e9357600080fd5b610e9f88838901610dca565b93506060870135915080821115610eb557600080fd5b50610ec287828801610dca565b91505092959194509250565b600060208284031215610ee057600080fd5b81356001600160a01b0381168114610ef757600080fd5b9392505050565b6020808252825182820181905260009190848201906040850190845b81811015610da857835183529284019291840191600101610f1a565b600181811c90821680610f4a57607f821691505b602082108114156105f057634e487b7160e01b600052602260045260246000fd5b60208082526017908201527f43616d706169676e20646f6573206e6f74206578697374000000000000000000604082015260600190565b86815260018060a01b038616602082015284604082015283606082015260c060808201526000610fd560c0830185610cb1565b82810360a0840152610fe78185610cb1565b9998505050505050505050565b634e487b7160e01b600052601160045260246000fd5b600060001982141561101e5761101e610ff4565b5060010190565b60008282101561103757611037610ff4565b500390565b634e487b7160e01b600052603260045260246000fd5b6000821982111561106557611065610ff4565b50019056fea264697066735822122056ae7e92e789276ca62f8e641007ca91b3fe3ef655ed119b14b52b4cda1bae4064736f6c634300080b0033",
  "linkReferences": {},
  "deployedLinkReferences": {}
}